S01700004763634170706C69636174696F6E372E7372656355
S11300000C9419020C9436020C9436020C943602A9
S11300100C9436020C9436020C9436020C9436027C
S11300200C9436020C9436020C9436020C9436026C
S11300300C9436020C94E5030C9436020C943602AC
S11300400C9436020C9436020C9436020C9436024C
S11300500C943602870389038B038D038F0391036A
S11300609303950397039903B203B203B203B20354
S1130070B203B203B2039B039D039F03A103A30333
S1130080A503B203B203B203B203B203B203B203D1
S1130090B203B203B203B203B203B203B203B203B4
S11300A0B203B203B203B203B203B203B203B203A4
S11300B0B203B203B203A703A903AB03AD03AF03B7
S11300C0B103D00BCE0BCC0BCA0BC80BC60BC40BA5
S11300D0EE0BD20BD40BEE0BEE0BEE0BEE0BEE0B8A
S11300E0EE0BEE0BD60BD80BDA0BDC0BDE0BE00BB6
S11300F0EE0BEE0BEE0BEE0BEE0BEE0BEE0BEE0B34
S1130100EE0BEE0BEE0BEE0BEE0BEE0BEE0BEE0B23
S1130110EE0BEE0BEE0BEE0BEE0BEE0BEE0BEE0B13
S1130120EE0BEE0BE20BE40BE60BE80BEA0BEC0B2D
S1130130A60CA90CAD0CB10CB50CB90CBD0CC10CC2
S1130140C50CC90CFC0CFC0CFC0CFC0CFC0CFC0CD5
S1130150FC0CCD0CD10CD50CD90CDD0CE10CFC0C39
S1130160FC0CFC0CFC0CFC0CFC0CFC0CFC0CFC0C4B
S1130170FC0CFC0CFC0CFC0CFC0CFC0CFC0CFC0C3B
S1130180FC0CFC0CFC0CFC0CFC0CFC0CFC0CFC0C2B
S1130190FC0CE50CE90CED0CF10CF50CF90C080D5C
S11301A00B0D0F0D130D170D1B0D1F0D230D270D1B
S11301B02B0D5E0D5E0D5E0D5E0D5E0D5E0D5E0D16
S11301C02F0D330D370D3B0D3F0D430D5E0D5E0DB1
S11301D05E0D5E0D5E0D5E0D5E0D5E0D5E0D5E0DC3
S11301E05E0D5E0D5E0D5E0D5E0D5E0D5E0D5E0DB3
S11301F05E0D5E0D5E0D5E0D5E0D5E0D5E0D5E0DA3
S1130200470D4B0D4F0D530D570D5B0D1C101F105B
S1130210231027102B102F10331037103B103F10D2
S113022072107210721072107210721072104310E9
S113023047104B104F105310571072107210721059
S1130240721072107210721072107210721072109A
S1130250721072107210721072107210721072108A
S113026072107210721072107210721072105B1091
S11302705F10631067106B106F107E108110851073
S113028089108D109110951099109D10A110D41003
S1130290D410D410D410D410D410D410A510A91094
S11302A0AD10B110B510B910D410D410D410D410AE
S11302B0D410D410D410D410D410D410D410D4101A
S11302C0D410D410D410D410D410D410D410D4100A
S11302D0D410D410D410D410D410D410BD10C11024
S11302E0C510C910CD10D11028112B112F113311A5
S11302F037113B113F11431147114B117E117E11F0
S11303007E117E117E117E117E114F1153115711F2
S11303105B115F1163117E117E117E117E117E11BE
S11303207E117E117E117E117E117E117E117E1151
S11303307E117E117E117E117E117E117E117E1141
S11303407E117E117E117E117E1167116B116F116A
S1130350731177117B118A118D11911195119911D6
S11303609D11A111A511A911AD11E011E011E01128
S1130370E011E011E011E011B111B511B911BD1195
S1130380C111C511E011E011E011E011E011E0111B
S1130390E011E011E011E011E011E011E011E011D1
S11303A0E011E011E011E011E011E011E011E011C1
S11303B0E011E011E011E011C911CD11D111D511F5
S11303C0D911DD11EC11EF11F311F711FB11FF112C
S11303D0031207120B120F1242124212421242125D
S11303E0421242124212131217121B121F1223122C
S11303F02712421242124212421242124212421274
S11304004212421242124212421242124212421248
S11304104212421242124212421242124212421238
S11304204212421242122B122F12331237123B1273
S11304303F1211241FBECFE5D8E0DEBFCDBF11E0CF
S1130440A0E6B0E0E8E5F7E202C005900D92A6321E
S1130450B107D9F727E0A6E2B1E001C01D92A83C9C
S1130460B207E1F70E94BF050C94AA130C94000094
S113047011B88CE080B90895DB0134EA232FE0E25F
S113048074E861E226BF06B607FEFDCF91B1987FFE
S113049090933A01903129F09833A1F3983009F000
S11304A088C0E3B976BF06B607FEFDCF91B1987F49
S11304B090933A01903231F3983321F3983109F053
S11304C064C083B976BF06B607FEFDCF91B1987FAD
S11304D090933A01903309F45BC0983399F29832BF
S11304E019F08FEF9FEF62C036BF06B607FEFDCF4F
S11304F091B1987F90933A01903129F0983311F299
S1130500983009F048C063B991E29A95F1F7000078
S113051076BF06B607FEFDCF91B1987F90933A015E
S1130520903441F09834D1F1983309F4ABCF8FEF84
S11305309FEF3CC081E28A95F1F700001A161B0672
S113054084F5642F752F80E090E034EC44E8FB01DF
S1130550A130B10509F4342F36BF06B607FEFDCF2E
S113056021B1287F20933A01203519F0283521F153
S11305701BC023B120836F5F7F4F019620913A0106
S11305802835A1F0119719F711C08FEF9FEF0EC016
S113059080E090E00BC08FEF9FEF08C080E090E018
S11305A005C080E090E002C08FEF9FEF24E926BFF2
S11305B008958FEF9FEF089523B120830196F6CF1E
S11305C0FA01880F54EA44E856BF06B607FEFDCF89
S11305D091B1987F90933A01903129F09833A1F327
S11305E0983009F04BC083B946BF06B607FEFDCF6D
S11305F091B1987F90933A01903231F3983321F37B
S1130600983161F563B946BF06B607FEFDCF91B1D7
S1130610987F90933A01903321F19833A9F298325C
S113062019F0EFEFFFEF25C01E161F06ECF4A22F02
S1130630B32F20E030E094E88D9183B996BF06B6DD
S113064007FEFDCF81B1887F80933A01883279F427
S11306502F5F3F4FE217F30779F70BC0EFEFFFEF80
S113066008C0E0E0F0E005C0E0E0F0E002C0EFEF39
S1130670FFEF84E986BF8E2F9F2F08958FEF9FEFA2
S11306800895880F24EA34E826BF06B607FEFDCF96
S113069091B1987F90933A01903121F09833A1F36E
S11306A0983041F583B936BF06B607FEFDCF91B148
S11306B0987F90933A01903239F3983329F3983123
S11306C089F4FB01808183B984E886BF06B607FEFE
S11306D0FDCF81B1887F80933A01883231F08FEF6A
S11306E09FEF05C08FEF9FEF02C081E090E024E907
S11306F026BF08958FEF9FEF089590E0FC01F097D7
S1130700E733F10578F5E65DFF4F0C94651320E0BF
S113071029C021E027C022E025C023E023C024E033
S113072021C025E01FC026E01DC027E01BC028E033
S113073019C029E017C02AE015C02BE013C02CE033
S113074011C02DE00FC02EE00DC02FE00BC02AE039
S113075009C02BE007C02CE005C02DE003C02EE04B
S113076001C02FE0822F0895A89540E050E09C013D
S1130770042E02C0220F331F0A94E2F72227307896
S1130780211560E8360711F4D99A03C0232B09F424
S1130790D9982AE12A95F1F700C0D89AD8984F5FE2
S11307A05F4F4031510519F76AE16A95F1F700C0CE
S11307B0DA9ADA9808951AB810BC88E089B91BB897
S11307C088E98AB986E880BD08951F920F920FB612
S11307D00F9211242F938F939F93EF93FF93A895D8
S11307E08091340190E02CB1FC01E05CFE4F208349
S11307F0209140012B35A9F4209134012F5F2093DF
S11308003401FC01E05CFE4F80818D3561F481E0B0
S11308108093C70780913401809332011092340190
S113082002C010923401FF91EF919F918F912F910B
S11308300F900FBE0F901F9018958FEF8ABBDB9A15
S113084098E091BB939887BB98B3936398BBC29885
S1130850C398C698C798EFE8F1E03197F1F700C064
S11308600000C498F5E3FA95F1F70000C49A84BB3C
S113087081B3846F81BB979A969A929A9398949A2B
S1130880959A8FE891E00197F1F700C00000089570
S11308909FEF94BBEFE8F1E03197F1F700C000005F
S11308A09298EFE8F1E03197F1F700C000009698D4
S11308B0EFE8F1E03197F1F700C0000085BB8FE865
S11308C091E00197F1F700C000009598EFE8F1E09E
S11308D03197F1F700C00000959A8FE891E00197F5
S11308E0F1F700C0000014BAEFE8F1E03197F1F736
S11308F000C00000929A8FE891E00197F1F700C0E0
S11309000000969AEFE8F1E03197F1F700C000009B
S113091094988FE891E00197F1F700C0000083B349
S113092080931407EFE8F1E03197F1F700C000007D
S1130930949A8FE891E00197F1F700C0000080914C
S1130940140708959FEF94BBEFE8F1E03197F1F7B6
S113095000C000009298EFE8F1E03197F1F700C091
S11309600000969885BB8FE891E00197F1F700C0ED
S113097000009598EFE8F1E03197F1F700C000002E
S1130980959A8FE891E00197F1F700C00000969ADC
S1130990EFE8F1E03197F1F700C0000065BB8FE8A4
S11309A091E00197F1F700C000009598EFE1F3E0C2
S11309B03197F1F700C00000959A0895979A8FE84F
S11309C091E00197F1F700C0000061E080E00E942F
S11309D0A2048FE891E00197F1F700C0000060E005
S11309E080E00E94A2048FE891E00197F1F700C033
S11309F0000061E08EE10E94A20460E08FE10E94A9
S1130A00A20481E00E94480480933F0160E380E1F6
S1130A100E94A20465E881E10E94A20469EA82E1DD
S1130A200E94A2046BE183E10E94A20465EC84E1CC
S1130A300E94A20462E085E10E94A2046FEF86E1B5
S1130A400E94A2046FEF87E10E94A2046FEF88E185
S1130A500E94A2046FEF89E10E94A2046FEF8AE171
S1130A600E94A2046FEF8BE10E94A2046FEF8CE15D
S1130A700E94A2046FEF8DE10E94A20460E88FEF50
S1130A800E94A20460E88EEF0E94A20460E482E067
S1130A900E94A2046BE28CEF0E94A20464E08DEF3A
S1130AA00E94A20497980895EF92FF920F931F93C8
S1130AB0CF93DF93CDB7DEB7C058D1090FB6F89402
S1130AC0DEBF0FBECDBFA89580E8E6EAF0E0DE0108
S1130AD0119601900D928A95E1F7CE0101967C0161
S1130AE010E000E1A8950093A4002091BF07309185
S1130AF0C00741E050E061E8802F0E94E002F70166
S1130B0081917F018093A4002091BF073091C00799
S1130B1041E050E0612F802F0E94E0028FE39CE9C6
S1130B200197F1F700C000001F5F1034D9F68FE37E
S1130B308093A4002091BF073091C00741E050E0AA
S1130B4060E880E10E94E00284E88093A4002091A0
S1130B50BF073091C00741E050E061E880E10E94A6
S1130B60E002C058DF4F0FB6F894DEBF0FBECDBF12
S1130B70DF91CF911F910F91FF90EF9008958FEF28
S1130B8082BB8EEF81BB0E941D048FE891E0019728
S1130B90F1F700C0000060E875E280E090E00E9498
S1130BA0DB030E9438021092C70783E090E0909321
S1130BB0BC078093BB0785EA90E090930B07809372
S1130BC00A0788E391E090933C0180933B0184EA17
S1130BD090E09093C0078093BF0787E391E09093E0
S1130BE0C6078093C50786E391E090933E01809306
S1130BF03D0180916000909161000E947A1380937E
S1130C002B018091A2009091A3000E9482139093E3
S1130C10510180935001939895E39A95F1F7000060
S1130C20C798EFE9F1E03197F1F700C00000C59AE9
S1130C30FFEF29E648E1F15020404040E1F700C0D1
S1130C4000000E94DE0478948FE098E10FB6F894D7
S1130C50A89591BD0FBE81BD939AC49A90E19A95CF
S1130C60F1F7C498E0E1EA95F1F7C49AF0E1FA9556
S1130C70F1F7DB9825E12A95F1F70000DB9A8093E0
S1130C80360160913D0170913E0180E790E00E9441
S1130C9041038FE891E00197F1F700C000000E9442
S1130CA05405C1E0C09339014091BB075091BC0782
S1130CB061E070E08FEF0E943C0210923901EFE88E
S1130CC0F1E03197F1F700C00000D0E8D093B50708
S1130CD0C09339014091BB075091BC0761E070E0BB
S1130CE08FEF0E943C02109239018FE891E0019746
S1130CF0F1F700C0000080915001909151010E94D1
S1130D00B403C098C093330195E39A95F1F70000BA
S1130D10C09AEFE8F1E03197F1F700C00000DC98E9
S1130D20C09339012091BF073091C00741E050E0E2
S1130D3061E880E10E94E002109239018FE396E0BD
S1130D400197F1F700C00000D093B507C0933901B3
S1130D502BE231E041E050E060E880E10E94E002F3
S1130D6010923901EFE8F1E03197F1F700C000008B
S1130D70DC9AC0E4D1E00F2EFBE57F2EF02D6894C1
S1130D80662465F80F2EF0E3DF2EF02D0F2EFCE223
S1130D905F2EF02D0F2EF1E34F2EF02D0F2EFDE5DB
S1130DA0CF2EF02D00E511E00F2EF0E18F2EF7E0AD
S1130DB09F2EF02D0F2EF2EAEF2EF0E0FF2EF02DF5
S1130DC00F2EF8EEAF2EF3E0BF2EF02DA8958091F4
S1130DD0C7078130D9F71092C707A8958981843550
S1130DE0B1F58A81823599F5A8957CB88FE891E0B0
S1130DF00197F1F700C000006CB8EFE8F1E031971B
S1130E00F1F700C00000DCB88FE891E00197F1F73A
S1130E1000C000005CB8EFE8F1E03197F1F700C0E2
S1130E2000004CB88FE891E00197F1F700C0000092
S1130E3093E49CB9EFE8F1E03197F1F700C00000CA
S1130E40CCB88FE891E00197F1F700C000008981E8
S1130E50863409F03EC08A818934D9F5A8957CB8D6
S1130E60EFE8F1E03197F1F700C000006CB88FE8CB
S1130E7091E00197F1F700C00000DCB8EFE8F1E081
S1130E803197F1F700C000005CB88FE891E001975A
S1130E90F1F700C0000082E38CB9EFE8F1E031978C
S1130EA0F1F700C000005CB88FE891E00197F1F71A
S1130EB000C0000085E48CB9EFE8F1E03197F1F768
S1130EC000C00000CCB88FE891E00197F1F700C0B2
S1130ED000008981823549F58A81833431F5A895EA
S1130EE07CB8EFE8F1E03197F1F700C000006CB88E
S1130EF08FE891E00197F1F700C00000DCB8EFE85B
S1130F00F1E03197F1F700C00000CCB88FE891E030
S1130F100197F1F700C000009FEFE3E2F4EF915076
S1130F20E040F040E1F700C000008981833509F01A
S1130F30A3C08A81863409F09FC0A8958C8181332F
S1130F4019F58091330181110C945113A8957CB843
S1130F508FE891E00197F1F700C000006CB8EFE86A
S1130F60F1E03197F1F700C00000DCB88FE891E0C0
S1130F700197F1F700C00000CCB8EFE8F1E0319739
S1130F80F1F700C0000022CF8C81813319F58091E4
S1130F903301882311F40C945F13A8957CB88FE86F
S1130FA091E00197F1F700C000006CB8EFE8F1E0C0
S1130FB03197F1F700C00000DCB88FE891E00197A9
S1130FC0F1F700C00000CCB8EFE8F1E03197F1F799
S1130FD000C000008C81803351F580913301813051
S1130FE011F00C945813A895809139018130E1F3E4
S1130FF0109233017CB88FE891E00197F1F700C0BB
S113100000006CB8EFE8F1E03197F1F700C00000A0
S1131010DCB88FE891E00197F1F700C00000CCB88C
S1131020EFE8F1E03197F1F700C00000CFCE8C81FA
S1131030803311F5809133018130F1F0A8957CB8AB
S11310408FE891E00197F1F700C000006CB8EFE879
S1131050F1E03197F1F700C00000DCB88FE891E0CF
S11310600197F1F700C00000CCB8EFE8F1E0319748
S1131070F1F700C00000AACE8981833509F078C257
S11310808A81843509F074C2A8958C81873509F06A
S1131090A3C0A8957CB88FE891E00197F1F700C050
S11310A000006CB8EFE8F1E03197F1F700C0000000
S11310B0DCB88FE891E00197F1F700C00000CCB8EC
S11310C0309132013B30A1F5A8954E816F8188851E
S11310D0298550E0405351094A9DF0014B9DF00D84
S11310E05A9DF00D112470E06053710994E6969FA7
S11310F0A001979F500D11244E0F5F1F90E0C097E1
S1131100BC01660F771F880F991F880F991F880FDE
S1131110991F860F971F840F951F422F50E040534D
S11311205109840F951F909351018093500144C03D
S11311303A3031F5A8956E818F81288570E060532F
S1131140710994E6969FA001979F500D112490E099
S1131150C097BC01660F771F880F991F880F991FCE
S1131160880F991F860F971F840F951F30E0205317
S11311703109820F931F909351018093500126C02F
S11311803930D1F4A8958E812F8190E0C097AC01BD
S1131190440F551F880F991F880F991F880F991F97
S11311A0840F951F30E020533109820F931F9093D1
S11311B05101809350010AC0383041F4A8958E81C2
S11311C090E0C09790935101809350018091500119
S11311D0909151010E94B4038C818335F9F4A89550
S11311E0609150017091510181E090E00E9495134B
S11311F07CB8EFE8F1E03197F1F700C000006CB87B
S11312008FE891E00197F1F700C00000DCB8EFE847
S1131210F1E03197F1F700C00000CCB88C81823541
S113122009F0A6C1A8957CB88FE891E00197F1F781
S113123000C000006CB8EFE8F1E03197F1F700C0AE
S11312400000DCB88FE891E00197F1F700C00000DE
S11312505CB8EFE8F1E03197F1F700C000002091AD
S1131260500130915101369527953695279536953D
S11312702795A5ECB0E20E946B13929582958F702E
S113128089279F70892780932C01009749F0A8959E
S1131290805D8CB98FEB92E10197F1F700C00000FB
S11312A040915001509151019A01369527953695F8
S11312B0279536952795A5ECB0E20E946B1392957D
S11312C082958F7089279F7089278A9D90018B9DB5
S11312D0300D9A9D300D1124FA01E21BF30B9F018E
S11312E03695279536952795ABE7B4E10E946B13A5
S11312F09695879580932C01811107C02091500108
S113130030915101283E334048F0A895805D8CB956
S11313108FEB92E10197F1F700C00000409150017A
S1131320509151019A013695279536952795369512
S11313302795A5ECB0E20E946B13929582958F706D
S113134089279F7089278A9D90018B9D300D9A9DD6
S1131350300D1124421B530B9A013695279536956F
S11313602795ABE7B4E10E946B139695879564E6E5
S1131370689F9001699F300D1124FA01E21BF30B61
S11313809F01ADECBCEC0E946B13FC01F695E79554
S1131390F695E795F695E795E0932C01E11128C0C1
S11313A040915001509151019A01369527953695F7
S11313B0279536952795A5ECB0E20E946B1392957C
S11313C082958F7089279F7089278A9D90018B9DB4
S11313D0300D9A9D300D1124421B530B4436510598
S11313E038F48091500190915101883E934048F027
S11313F0A895E05DECB98FEB92E10197F1F700C09D
S11314000000E0915001F09151019F01369527951C
S11314103695279536952795A5ECB0E20E946B1377
S1131420929582958F7089279F7089278A9D900154
S11314308B9D300D9A9D300D1124E21BF30B9F01FF
S11314403695279536952795ABE7B4E10E946B1343
S11314509695879544E6489F9001499F300D112445
S1131460E21BF30B9F01ADECBCEC0E946B13969551
S1131470879596958795969587959C01220F331F9E
S1131480880F991F880F991F880F991F820F931F28
S1131490E81BF90BE0932C01E1115AC04091500173
S11314A0509151019A013695279536952795369591
S11314B02795A5ECB0E20E946B13929582958F70EC
S11314C089279F7089278A9D90018B9D300D9A9D55
S11314D0300D1124421B530B44365105C8F580913D
S11314E0500190915101883E934090F540915001F4
S11314F0509151019A013695279536952795369541
S113150027950E946B13929582958F7089279F70FF
S113151089278A9D90018B9D300D9A9D300D112451
S1131520421B530B9A013695279536952795ABE7C1
S1131530B4E10E946B139695879564E6689F9001C9
S1131540699F300D1124421B530B4A30510548F05A
S1131550A895E05DECB98FEB92E10197F1F700C03B
S11315600000CCB8EFE8F1E03197F1F700C00000DB
S11315708981823591F48A81893479F4A895E2E6E7
S1131580F0E0A89581918CB98FE891E00197F1F78B
S113159000C00000EE16FF06A1F78981833509F02B
S11315A060C08A81853509F05CC0A8958C81873537
S11315B031F08C81833519F08C818C3409F5A89530
S11315C07CB8EFE8F1E03197F1F700C000006CB8A7
S11315D08FE891E00197F1F700C00000DCB8EFE874
S11315E0F1E03197F1F700C00000CCB88FE891E04A
S11315F00197F1F700C000008E8180538093310180
S11316008C81823571F5A8957CB8EFE8F1E03197CB
S1131610F1F700C000006CB88FE891E00197F1F792
S113162000C00000DCB8EFE8F1E03197F1F700C04A
S113163000005CB88FE891E00197F1F700C000006A
S113164080913101805D8CB9EFE8F1E03197F1F7D9
S113165000C00000CCB88FE891E00197F1F700C01A
S113166000008981833509F05AC08A81893409F0E0
S113167056C0A8958C81873509F5A8957CB8EFE804
S1131680F1E03197F1F700C000006CB88FE891E009
S11316900197F1F700C00000DCB8EFE8F1E0319702
S11316A0F1F700C00000CCB88FE891E00197F1F7A2
S11316B000C000008E818053809330018C8182357C
S11316C071F5A8957CB8EFE8F1E03197F1F700C027
S11316D000006CB88FE891E00197F1F700C00000BA
S11316E0DCB8EFE8F1E03197F1F700C000005CB836
S11316F08FE891E00197F1F700C00000809130017C
S1131700805D8CB9EFE8F1E03197F1F700C000009B
S1131710CCB88FE891E00197F1F700C0000089810F
S1131720833509F0DDC08A81833509F0D9C0A895D5
S11317308C81873509F07CC0A8957CB8EFE8F1E08E
S11317403197F1F700C000006CB88FE891E0019781
S1131750F1F700C00000DCB8EFE8F1E03197F1F7F1
S113176000C00000CCB88FE891E00197F1F700C009
S113177000008F8190E0FC01F097E733F10570F5EC
S1131780EF59FF4F0C94651381E029C082E027C014
S113179083E025C084E023C085E021C086E01FC02B
S11317A087E01DC087E01BC087E019C087E017C031
S11317B087E015C087E013C087E011C087E00FC041
S11317C087E00DC087E00BC087E009C087E007C051
S11317D087E005C087E003C087E001C080E09E8108
S11317E0903311F4809328019E81913311F48093F6
S11317F0270180912701982F990F990F990F8091B4
S11318002801890F80932B0180E88093B50781E03C
S1131810809339012BE231E041E050E060E880E15F
S11318200E94E002109239019AE19A95F1F700C002
S11318308C81833529F5A89560912B0180916000F6
S1131840909161000E9488137CB8EFE8F1E0319731
S1131850F1F700C000006CB88FE891E00197F1F750
S113186000C00000DCB8EFE8F1E03197F1F700C008
S11318700000CCB88FE891E00197F1F700C00000B8
S11318808C81823569F5A8957CB8EFE8F1E0319751
S1131890F1F700C000006CB88FE891E00197F1F710
S11318A000C00000DCB8EFE8F1E03197F1F700C0C8
S11318B000005CB88FE891E00197F1F700C00000E8
S11318C080912B018CB9EFE8F1E03197F1F700C07A
S11318D00000CCB88FE891E00197F1F700C0000058
S11318E08981833509F060C18A818A3509F05CC138
S11318F0A8958C81873509F0FFC0A8957CB8EFE8DE
S1131900F1E03197F1F700C000006CB88FE891E086
S11319100197F1F700C00000DCB8EFE8F1E031977F
S1131920F1F700C00000CCB88FE891E00197F1F71F
S113193000C000008E8190E0FC01F097E733F105D0
S113194008F05AC0E856FF4F0C9465131092270113
S113195053C081E0809327014FC082E08093270128
S11319604BC083E08093270147C084E08093270124
S113197043C085E0809327013FC086E08093270120
S11319803BC087E08093270137C088E0809327011C
S113199033C089E0809327012FC08AE08093270118
S11319A02BC08BE08093270127C08CE08093270114
S11319B023C08DE0809327011FC08EE08093270110
S11319C01BC08FE08093270117C08AE08093270112
S11319D013C08BE0809327010FC08CE08093270114
S11319E00BC08DE08093270107C08EE08093270110
S11319F003C08FE0809327018F8190E0FC01F09772
S1131A00E733F10508F05AC0E153FF4F0C94651316
S1131A101092280153C081E0809328014FC082E0D6
S1131A20809328014BC083E08093280147C084E061
S1131A308093280143C085E0809328013FC086E05D
S1131A40809328013BC087E08093280137C088E059
S1131A508093280133C089E0809328012FC08AE055
S1131A60809328012BC08BE08093280127C08CE051
S1131A708093280123C08DE0809328011FC08EE04D
S1131A80809328011BC08FE08093280117C08AE04F
S1131A908093280113C08BE0809328010FC08CE051
S1131AA0809328010BC08DE08093280107C08EE04D
S1131AB08093280103C08FE080932801909127012F
S1131AC080912801E0E19E9F800D112480932B01D9
S1131AD080E88093B50781E0809339012BE231E0FF
S1131AE041E050E060E880E10E94E0021092390198
S1131AF0FAE1FA95F1F700C08C81833529F5A895B0
S1131B0060912B0180916000909161000E94881384
S1131B107CB88FE891E00197F1F700C000006CB841
S1131B20EFE8F1E03197F1F700C00000DCB88FE88E
S1131B3091E00197F1F700C00000CCB8EFE8F1E0C4
S1131B403197F1F700C000008C81823569F5A895C2
S1131B507CB88FE891E00197F1F700C000006CB801
S1131B60EFE8F1E03197F1F700C00000DCB88FE84E
S1131B7091E00197F1F700C000005CB8EFE8F1E0F4
S1131B803197F1F700C0000080912B018CB98FE8E8
S1131B9091E00197F1F700C00000CCB8EFE8F1E064
S1131BA03197F1F700C000008981853409F060C0E5
S1131BB08A818D3409F05CC0A8958C81873531F019
S1131BC08C81833519F08C818C3409F5A8957CB807
S1131BD08FE891E00197F1F700C000006CB8EFE8DE
S1131BE0F1E03197F1F700C00000DCB88FE891E034
S1131BF00197F1F700C00000CCB8EFE8F1E03197AD
S1131C00F1F700C000008E81805380932F018C81F6
S1131C10823571F5A8957CB88FE891E00197F1F7CA
S1131C2000C000006CB8EFE8F1E03197F1F700C0B4
S1131C300000DCB88FE891E00197F1F700C00000E4
S1131C405CB8EFE8F1E03197F1F700C00000809153
S1131C502F01805D8CB98FE891E00197F1F700C006
S1131C600000CCB8EFE8F1E03197F1F700C00000D4
S1131C708981833409F06AC08A818E3409F066C090
S1131C80A8958C81873531F08C81833519F08C814E
S1131C908C3439F5A8957CB88FE891E00197F1F779
S1131CA000C000006CB8EFE8F1E03197F1F700C034
S1131CB00000DCB88FE891E00197F1F700C0000064
S1131CC0CCB8EFE8F1E03197F1F700C00000EE8105
S1131CD0E053E0932E018885F0E0E45FF84F8053F1
S1131CE080838C81823591F5A8957CB88FE891E04A
S1131CF00197F1F700C000006CB8EFE8F1E031970C
S1131D00F1F700C00000DCB88FE891E00197F1F72B
S1131D1000C000005CB8EFE1FEE43197F1F700C0C9
S1131D200000ECE0F7E08191805D8CB98FEB92E1EB
S1131D300197F1F700C00000E815F905A1F7CCB848
S1131D40EFE8F1E03197F1F700C0000089818134B8
S1131D5009F060C08A81863409F05CC0A8958C8142
S1131D60873531F08C81833519F08C818C3409F5F9
S1131D70A8957CB88FE891E00197F1F700C00000C6
S1131D806CB8EFE8F1E03197F1F700C00000DCB87F
S1131D908FE891E00197F1F700C00000CCB8EFE8BC
S1131DA0F1E03197F1F700C000008E8180538093F9
S1131DB02D018C81823571F5A8957CB88FE891E06E
S1131DC00197F1F700C000006CB8EFE8F1E031973B
S1131DD0F1F700C00000DCB88FE891E00197F1F75B
S1131DE000C000005CB8EFE8F1E03197F1F700C003
S1131DF0000080912D01805D8CB98FE891E00197FE
S1131E00F1F700C00000CCB8EFE8F1E03197F1F74A
S1131E1000C000008981843599F58A81843581F573
S1131E208C81873531F08C81833519F08C818C3429
S1131E3039F5A8957CB88FE891E00197F1F700C0D7
S1131E4000006CB8EFE8F1E03197F1F700C0000052
S1131E50DCB88FE891E00197F1F700C00000CCB83E
S1131E60EFE8F1E03197F1F700C000008E81803394
S1131E7011F4DD98DF988E81813311F4DD9ADF9AB5
S1131E808981833509F069C08A818F3409F065C07E
S1131E90A8958C81873509F060C07CB88FEE9AE0F4
S1131EA00197F1F700C000006CB8EFEEFAE031974B
S1131EB0F1F700C00000DCB88FEE9AE00197F1F76B
S1131EC000C00000CCB88E810E947D03282E809330
S1131ED035018B850E947D03382E8A850E947D03FF
S1131EE090E1899F300C11243092B90789850E94B2
S1131EF07D03382E88850E947D03E0E18E9F300C9F
S1131F001124E8EBF7E030828AE28093B5073324AA
S1131F1033943092390129EB37E041E050E06AE232
S1131F20822D0E94E00210923901FAE1FA95F1F74C
S1131F3000C08BE28093B5073092390128EB37E07B
S1131F4041E050E06BE2809135010E94E002109282
S1131F5039012AE12A95F1F700C089818135B1F56B
S1131F608A81813499F58C81873581F57CB88FE835
S1131F7091E00197F1F700C000006CB8EFE8F1E0E0
S1131F803197F1F700C00000DCB88FE891E00197C9
S1131F90F1F700C00000CCB8EFE8F1E03197F1F7B9
S1131FA000C0000081E0809339014091BB0750914B
S1131FB0BC0761E070E08FEF0E943C02109239018F
S1131FC08FE891E00197F1F700C000008981843522
S1131FD009F008C18A81883509F004C1A8958C816B
S1131FE0873509F0FFC0A8957CB8EFE8F1E0319798
S1131FF0F1F700C000006CB88FE891E00197F1F7A9
S113200000C00000DCB8EFE8F1E03197F1F700C060
S11320100000CCB88FE891E00197F1F700C0000010
S11320208E8190E0FC01F097E733F10508F05AC087
S1132030EA5FFE4F0C9465131092270153C081E0B0
S1132040809327014FC082E0809327014BC083E037
S11320508093270147C084E08093270143C085E033
S1132060809327013FC086E0809327013BC087E02F
S11320708093270137C088E08093270133C089E02B
S1132080809327012FC08AE0809327012BC08BE027
S11320908093270127C08CE08093270123C08DE023
S11320A0809327011FC08EE0809327011BC08FE01F
S11320B08093270117C08AE08093270113C08BE027
S11320C0809327010FC08CE0809327010BC08DE023
S11320D08093270107C08EE08093270103C08FE01F
S11320E0809327018F8190E0FC01F097E733F1059D
S11320F008F05AC0E35CFE4F0C946513109228015B
S113210053C081E0809328014FC082E0809328016E
S11321104BC083E08093280147C084E0809328016A
S113212043C085E0809328013FC086E08093280166
S11321303BC087E08093280137C088E08093280162
S113214033C089E0809328012FC08AE0809328015E
S11321502BC08BE08093280127C08CE0809328015A
S113216023C08DE0809328011FC08EE08093280156
S11321701BC08FE08093280117C08AE08093280158
S113218013C08BE0809328010FC08CE0809328015A
S11321900BC08DE08093280107C08EE08093280156
S11321A003C08FE08093280190912701809128013A
S11321B0E0E19E9F800D112480932A0183E880939F
S11321C0B50781E0809339012AE231E041E050E033
S11321D063E880E10E94E00210923901FAE1FA9585
S11321E0F1F700C08981843509F06BC18A81893592
S11321F009F067C1A8958C81873509F062C1A8955B
S11322007CB88FE891E00197F1F700C000006CB84A
S1132210EFE8F1E03197F1F700C00000DCB88FE897
S113222091E00197F1F700C00000CCB8EFE8F1E0CD
S11322303197F1F700C000008E8190E0FC01F09727
S1132240E733F10508F05AC0EC58FE4F0C946513BF
S11322501092260153C081E0809326014FC082E092
S1132260809326014BC083E08093260147C084E01D
S11322708093260143C085E0809326013FC086E019
S1132280809326013BC087E08093260137C088E015
S11322908093260133C089E0809326012FC08AE011
S11322A0809326012BC08BE08093260127C08CE00D
S11322B08093260123C08DE0809326011FC08EE009
S11322C0809326011BC08FE08093260117C08AE00B
S11322D08093260113C08BE0809326010FC08CE00D
S11322E0809326010BC08DE08093260107C08EE009
S11322F08093260103C08FE080932601888590E0B7
S1132300FC01F097E733F10508F05AC0E555FE4F9C
S11323100C9465131092270153C081E08093270128
S11323204FC082E0809327014BC083E08093270154
S113233047C084E08093270143C085E08093270150
S11323403FC086E0809327013BC087E0809327014C
S113235037C088E08093270133C089E08093270148
S11323602FC08AE0809327012BC08BE08093270144
S113237027C08CE08093270123C08DE08093270140
S11323801FC08EE0809327011BC08FE0809327013C
S113239017C08AE08093270113C08BE08093270144
S11323A00FC08CE0809327010BC08DE08093270140
S11323B007C08EE08093270103C08FE0809327013C
S11323C0898590E0FC01F097E733F10508F05AC0E5
S11323D0EE51FE4F0C9465131092280153C081E016
S11323E0809328014FC082E0809328014BC083E092
S11323F08093280147C084E08093280143C085E08E
S1132400809328013FC086E0809328013BC087E089
S11324108093280137C088E08093280133C089E085
S1132420809328012FC08AE0809328012BC08BE081
S11324308093280127C08CE08093280123C08DE07D
S1132440809328011FC08EE0809328011BC08FE079
S11324508093280117C08AE08093280113C08BE081
S1132460809328010FC08CE0809328010BC08DE07D
S11324708093280107C08EE08093280103C08FE079
S1132480809328019091270180912801F0E19F9F7A
S1132490800D112480932A0183E88093B50781E09D
S11324A0809339012AE231E041E050E063E8809111
S11324B026010E94E002109239012AE12A95F1F7DF
S11324C000C08981843509F066C08A818A3509F0A3
S11324D062C0A8958C81873509F05DC0A8957CB849
S11324E08FE891E00197F1F700C000006CB8EFE8C5
S11324F0F1E03197F1F700C00000DCB88FE891E01B
S11325000197F1F700C00000CCB8EFE8F1E0319793
S1132510F1F700C000008E810E947D0380932901A1
S11325208093360160913D0170913E0180E790E017
S11325300E9441038FE891E00197F1F700C0000089
S113254088850E947D03382E809326018A850E9407
S11325507D03282E809327018B850E947D03809321
S1132560280190E1299E800D112480932A0183E89B
S11325708093B50781E0809339012AE231E041E09C
S113258050E063E8832D0E94E00210923901EAE1F1
S1132590EA95F1F700C08981863509F073C08A8114
S11325A0863509F06FC0A8957CB88FE891E0019753
S11325B0F1F700C00000DCB8EFE8F1E03197F1F783
S11325C000C000005CB88FE891E00197F1F700C00B
S11325D0000087E38CB9EFE8F1E03197F1F700C030
S11325E000008EE28CB98FE891E00197F1F700C00A
S11325F00000DCB8EFE8F1E03197F1F700C000002B
S113260082E38CB9EFE8F1E03197F1F700C0000004
S11326109FE29CB9EFE8F1E03197F1F700C00000C8
S11326208CB9EFE8F1E03197F1F700C0000095E3D1
S11326309CB9EFE8F1E03197F1F700C00000DCB895
S1132640EFE8F1E03197F1F700C000008CB9EFE852
S1132650F1E03197F1F700C000008CB98FE891E008
S11326600197F1F700C000004CB8EFE8F1E03197B2
S1132670F1F700C00000CCB88FE891E00197F1F7C2
S113268000C00000E0E4F1E01192E017F107E1F787
S113269080E18093BA071092C707109234010C941A
S11326A0E6068C81813311F00C94EA070C94CD0773
S11326B08C81803311F00C943C080C941E088C819E
S11326C0803311F00C941708F3CFEE0FFF1F059021
S11326D0F491E02D0994A29FB001B39FC001A39F80
S11326E0700D811D1124911DB29F700D811D112447
S11326F0911D0895E199FECF9FBB8EBBE09A992767
S11327008DB30895A8E1B0E042E050E00C949C132E
S1132710262FE199FECF9FBB8EBB2DBB0FB6F8943D
S1132720E29AE19A0FBE019608950E948813272F1A
S11327300C948913DC01CB01FC01E199FECF06C0A6
S1132740FFBBEEBBE09A31960DB20D924150504062
S10B2750B8F70895F894FFCFD7
S113275800005B20302C434B483530204731384348
S1132768303331303335372C312C582D4441512CEA
S1132778312C3630302C39362C322C31352C31462C
S1132788342C31463430302C412C464646462C34C1
S1132798305D01008410D20B0100920BC0009A0B2B
S11327A89001920B0000930B1200920B0100960B00
S11327B89600920B0800900A1000800A2000000A74
S11327C81000000EF83F200A0300100A000010420F
S11327D8000012800100000000000000000000005A
S11327E800000000000000000000000000000000DD
S11327F800000000000000000000000000000000CD
S113280800000000000000000000000000000000BC
S10928180000132007225A
S9030000FC
